:1000000000000020FD0400008F9500009595000081
:100010009B950000A1950000A7950000000000003E
:100020000000000000000000000000006D0500005E
:10003000AD950000000000001306000073060000EC
:100040004D9400005B9400006994000077940000D8
:100050008594000093940000A1940000AF940000E8
:10006000BD940000CB940000D9940000E7940000F8
:10007000F594000003950000119500001F95000005
:100080002D950000B3950000B9950000BF950000C4
:10009000C5950000CB950000D1950000D7950000D4
:1000A000DD950000E3950000E9950000EF95000064
:1000B000F5950000FB950000019600003B950000BF
:1000C00007960000499500000D9600005795000026
:1000D0001396000065950000199600001F96000019
:1000E000259600002B960000319600003796000000
:1000F0003D96000043960000499600004F96000090
:100100000D0500000D0500000D0500000D050000A7
:10011000559600005B96000061960000679600000F
:100120006D96000073960000799600007F9600009F
:10013000859600008B96000091960000979600002F
:100140009D960000A396000073950000A9960000FC
:1001500081950000AF960000B5960000BB960000A8
:10016000C1960000C7960000CD960000D39600000F
:10017000D9960000DF960000E5960000EB9600009F
:10018000F19600000D0500000D0500000D050000B2
:100190000D0500000D0500000D0500000D05000017
:1001A0000D0500000D0500000D0500000D05000007
:1001B0000D0500000D0500000D0500000D050000F7
:1001C0000D0500000D0500000D0500000D050000E7
:1003F0000D0500000D0500000D050000FFFFFFFFCB
:10040000FFFFFFFFFFFFFFFFFFFFFFFFFEFFFFFFFD
:1004400010B5054C237833B9044B13B10448AFF30E
:1004500000800123237010BDC810002000000000A0
:100460006025010008B5034B1BB103490348AFF3F6
:10047000008008BD00000000CC10002060250100B5
:10048000A3F5803A704700BF174B002B08BF134BF2
:100490009D46FFF7F5FF00218B460F461348144A8F
:1004A000121A0EF025FB0E4B002B00D098470D4B77
:1004B000002B00D098470020002104000D000D48BB
:1004C000002802D00C480DF0EFFF0EF033F82000AA
:1004D000290003F0A1FC0DF0F3FF00BF00000800AD
:1004E000000000007998000000000020C8100020E3
:1004F00018640020A9E40000E1E4000072B608F0EE
:10050000BDFB08F053FB62B6FFF7BEFFFFF7FEBF6F
:1005100080F309887047EFF309807047684680F3DD
:1005200009885A480078C00714BF0220032080F3CE
:1005300014887047DFF858C1EFF305831B0618BF16
:100540006047EFF31483DB0708BF604700DF7047A5
:10055000DFF840C1EFF305831B0618BF6047EFF3D8
:100560001483DB0708BF604700DF7047EFF30980A3
:10057000816911F8021CE1BB90E80F1010B5E0474B
:10058000BDE81040EFF3098C8CE80700424B93E87C
:100590000600914208BF704741B91EF0100F16D1F6
:1005A0003E49086820F00100086010E01EF0100FBE
:1005B00006BF2CED108A0120002081F825002CE9CF
:1005C000F00FC1F828C00CB40AF0D8FD0CBC1A60BA
:1005D000D2F828C0BCE8F00F92F8250000280EBF22
:1005E0006FF0020E6FF0120EBCEC108A8CF30988CB
:1005F000704710B52A4A1268914209D8294C54F81C
:10060000214090E80F10A047EFF3098C8CE80F0011
:1006100010BD10B50AF024FDBDE810401E4B93E854
:100620000600914208BF7047EFF3098C1EF0100FCF
:1006300006BF2CED108A0120002081F825002CE94E
:10064000F00FC1F828C00CB40AF098FD0CBC1A6079
:10065000D2F828C0BCE8F00F92F8250000280EBFA1
:100660006FF0020E6FF0120EBCEC108A8CF309884A
:10067000704710B50AF064FDFFF7CEBF10B50AF061
:100680005DFD0AF05DFDFFF7C7BF000080130100AC
:10069000EDA9000009AA0000B463002034EF00E0D7
:1006A00000000000FCFFFFFF81F0004102E000BFFE
:1006B00083F0004330B54FEA41044FEA430594EA22
:1006C000050F08BF90EA020F1FBF54EA000C55EA5D
:1006D000020C7FEA645C7FEA655C00F0E2804FEA2E
:1006E0005454D4EB5555B8BF6D420CDD2C4480EA10
:1006F000020281EA030382EA000083EA010180EA40
:10070000020281EA0303362D88BF30BD11F0004F8D
:100710004FEA01314FF4801C4CEA113102D04042C3
:1007200061EB410113F0004F4FEA03334CEA1333FE
:1007300002D0524263EB430394EA050F00F0A78016
:10074000A4F10104D5F1200E0DDB02FA0EFC22FA11
:1007500005F2801841F1000103FA0EF2801843FA05
:1007600005F359410EE0A5F120050EF1200E012AF6
:1007700003FA0EFC28BF4CF0020C43FA05F3C01834
:1007800051EBE37101F0004507D54FF0000EDCF1AD
:10079000000C7EEB00006EEB0101B1F5801F1BD356
:1007A000B1F5001F0CD349085FEA30004FEA3C0C5A
:1007B00004F101044FEA445212F5800F80F09A8050
:1007C000BCF1004F08BF5FEA500C50F1000041EB54
:1007D000045141EA050130BD5FEA4C0C404141EB58
:1007E0000101013C28BFB1F5801FE9D291F0000F53
:1007F00004BF01460020B1FA81F308BF2033A3F102
:100800000B03B3F120020CDA0C3208DD02F1140CF8
:10081000C2F10C0201FA0CF021FA02F10CE002F133
:100820001402D8BFC2F1200C01FA02F120FA0CFC2C
:10083000DCBF41EA0C019040E41AA2BF01EB045175
:10084000294330BD6FEA04041F3C1CDA0C340EDC73
:1008500004F11404C4F1200220FA04F001FA02F3B6
:1008600040EA030021FA04F345EA030130BDC4F174
:100870000C04C4F1200220FA02F001FA04F340EA69
:100880000300294630BD21FA04F0294630BD94F01A
:10089000000F83F4801306BF81F480110134013D01
:1008A0004EE77FEA645C18BF7FEA655C29D094EA72
:1008B000050F08BF90EA020F05D054EA000C04BFF0
:1008C0001946104630BD91EA030F1EBF00210020DB
:1008D00030BD5FEA545C05D14000494128BF41F07A
:1008E000004130BD14F580043CBF01F5801130BDDE
:1008F00001F0004545F0FE4141F470014FF0000069
:1009000030BD7FEA645C1ABF194610467FEA655C19
:100910001CBF0B46024650EA013406BF52EA0335BB
:1009200091EA030F41F4002130BD00BF90F0000FA9
:1009300004BF0021704730B54FF4806404F13204E5
:100940004FF000054FF0000150E700BF90F0000F9E
:1009500004BF0021704730B54FF4806404F13204C5
:1009600010F0004548BF40424FF000013EE700BF95
:1009700042004FEAE2014FEA31014FEA02701FBF25
:1009800012F07F4393F07F4F81F06051704732F057
:100990007F4208BF704793F07F4F04BF41F40021AE
:1009A000704730B54FF4607401F0004521F000410C
:1009B0001CE700BF50EA010208BF704730B54FF096
:1009C00000050AE050EA010208BF704730B511F097
:1009D000004502D5404261EB41014FF4806404F1CF
:1009E00032045FEA915C3FF4D8AE4FF003025FEA55
:1009F000DC0C18BF03325FEADC0C18BF033202EBD9
:100A0000DC02C2F1200300FA03FC20FA02F001FA32
:100A100003FE40EA0E0021FA02F11444BDE600BFD5
:100A200070B54FF0FF0C4CF4E06C1CEA11541DBF84
:100A30001CEA135594EA0C0F95EA0C0F00F0DEF84F
:100A40002C4481EA030621EA4C5123EA4C5350EA34
:100A5000013518BF52EA033541F4801143F4801385
:100A600038D0A0FB02CE4FF00005E1FB02E506F016
:100A70000042E0FB03E54FF00006E1FB03569CF06B
:100A8000000F18BF4EF0010EA4F1FF04B6F5007F71
:100A900064F5407404D25FEA4E0E6D4146EB0606E3
:100AA00042EAC62141EA55514FEAC52040EA5E506C
:100AB0004FEACE2EB4F1FD0C88BFBCF5E06F1ED816
:100AC000BEF1004F08BF5FEA500E50F1000041EB4D
:100AD000045170BD06F0004646EA010140EA0200FA
:100AE00081EA0301B4EB5C04C2BFD4EB0C0541EA1C
:100AF000045170BD41F480114FF0000E013C00F331
:100B0000AB8014F1360FDEBF002001F0004170BD54
:100B1000C4F10004203C35DA0C341BDC04F114046D
:100B2000C4F1200500FA05F320FA04F001FA05F2F9
:100B300040EA020001F0004221F0004110EBD370C6
:100B400021FA04F642EB06015EEA430E08BF20EAF2
:100B5000D37070BDC4F10C04C4F1200500FA04F395
:100B600020FA05F001FA04F240EA020001F0004127
:100B700010EBD37041F100015EEA430E08BF20EA9A
:100B8000D37070BDC4F1200500FA05F24EEA020EE2
:100B900020FA04F301FA05F243EA020321FA04F011
:100BA00001F0004121FA04F220EA020000EBD370C8
:100BB0005EEA430E08BF20EAD37070BD94F0000FC8
:100BC0000FD101F00046400041EB010111F4801FFC
:100BD00008BF013CF7D041EA060195F0000F18BFAD
:100BE000704703F00046520043EB030313F4801FE9
:100BF00008BF013DF7D043EA0603704794EA0C0FA3
:100C00000CEA135518BF95EA0C0F0CD050EA4106B8
:100C100018BF52EA4306D1D181EA030101F0004135
:100C20004FF0000070BD50EA410606BF104619465D
:100C300052EA430619D094EA0C0F02D150EA013669
:100C400013D195EA0C0F05D152EA03361CBF1046AA
:100C500019460AD181EA030101F0004141F0FE4149
:100C600041F470014FF0000070BD41F0FE4141F4CD
:100C7000780170BD70B54FF0FF0C4CF4E06C1CEACD
:100C800011541DBF1CEA135594EA0C0F95EA0C0F82
:100C900000F0A7F8A4EB050481EA030E52EA03353D
:100CA0004FEA013100F088804FEA03334FF080555E
:100CB00045EA131343EA12634FEA022245EA11158B
:100CC00045EA10654FEA00260EF000419D4208BF3C
:100CD000964244F1FD0404F5407402D25B084FEAE9
:100CE0003202B61A65EB03055B084FEA32024FF495
:100CF00080104FF4002CB6EB020E75EB030E22BFF2
:100D0000B61A754640EA0C005B084FEA3202B6EBB1
:100D1000020E75EB030E22BFB61A754640EA5C0060
:100D20005B084FEA3202B6EB020E75EB030E22BFF0
:100D3000B61A754640EA9C005B084FEA3202B6EBF1
:100D4000020E75EB030E22BFB61A754640EADC00B0
:100D500055EA060E18D04FEA051545EA16754FEA12
:100D600006164FEAC30343EA52734FEAC2025FEA30
:100D70001C1CC0D111F4801F0BD141EA00014FF0BF
:100D800000004FF0004CB6E711F4801F04BF014390
:100D90000020B4F1FD0C88BFBCF5E06F3FF6AFAEAC
:100DA000B5EB030C04BFB6EB020C5FEA500C50F13C
:100DB000000041EB045170BD0EF0004E4EEA1131BF
:100DC00014EB5C04C2BFD4EB0C0541EA045170BDC6
:100DD00041F480114FF0000E013C90E645EA060E0A
:100DE0008DE60CEA135594EA0C0F08BF95EA0C0F38
:100DF0003FF43BAF94EA0C0F0AD150EA01347FF480
:100E000034AF95EA0C0F7FF425AF104619462CE756
:100E100095EA0C0F06D152EA03353FF4FDAE1046B9
:100E2000194622E750EA410618BF52EA43067FF40A
:100E3000C5AE50EA41047FF40DAF52EA43057FF49A
:100E4000EBAE12E74FF0FF3C06E000BF4FF0010CA5
:100E500002E000BF4FF0010C4DF804CD4FEA410C09
:100E60007FEA6C5C4FEA430C18BF7FEA6C5C1BD0D6
:100E700001B050EA410C0CBF52EA430C91EA030F57
:100E800002BF90EA020F0020704710F1000F91EAB4
:100E9000030F58BF994208BF90422CBFD8176FEA82
:100EA000E37040F0010070474FEA410C7FEA6C5C50
:100EB00002D150EA013C07D14FEA430C7FEA6C5C57
:100EC000D6D152EA033CD3D05DF8040B704700BF83
:100ED0008446104662468C461946634600E000BFD1
:100EE00001B5FFF7B7FF002848BF10F1000F01BDA3
:100EF0004DF808EDFFF7F4FF0CBF012000205DF86E
:100F000008FB00BF4DF808EDFFF7EAFF34BF0120F2
:100F100000205DF808FB00BF4DF808EDFFF7E0FF8B
:100F200094BF012000205DF808FB00BF4DF808EDDC
:100F3000FFF7CEFF94BF012000205DF808FB00BF43
:100F40004DF808EDFFF7C4FF34BF012000205DF825
:100F500008FB00BF4FEA410C7FEA6C5C02D150EA0B
:100F6000013C0AD14FEA430C7FEA6C5C02D152EAA1
:100F7000033C02D14FF0000070474FF00100704772
:100F80004FEA410212F5001215D211D56FF47873B1
:100F9000B3EB625212D94FEAC12343F0004343EA54
:100FA000505311F0004F23FA02F018BF404270472F
:100FB0004FF00000704750EA013005D111F00040B9
:100FC00008BF6FF0004070474FF00000704700BF4F
:100FD0004A0011D212F5001211D20DD56FF47873B8
:100FE000B3EB62520ED44FEAC12343F0004343EA0D
:100FF000505323FA02F070474FF00000704750EA58
:10100000013002D14FF0FF3070474FF000007047C1
:101010004FEA4102B2F1E04324BFB3F5001CDCF11A
:10102000FE5C0DD901F0004C4FEAC0024CEA507052
:10103000B2F1004F40EB830008BF20F00100704781
:1010400011F0804F21D113F13872BCBF01F0004084
:10105000704741F480114FEA5252C2F11802C2F1B6
:10106000200C10FA0CF320FA02F018BF40F0010037
:101070004FEAC1234FEAD32303FA0CFC40EA0C00E9
:1010800023FA02F34FEA4303CCE77FEA625307D126
:1010900050EA01331EBF4FF0FE4040F4400070475D
:1010A00001F0004040F0FE4040F40000704700BFF7
:1010B00053B94AB9002908BF00281CBF4FF0FF31BF
:1010C0004FF0FF3001F0C0B8ADF1080C6DE904CE6F
:1010D00000F006F8DDF804E0DDE9022304B0704713
:1010E0002DE9F047089D04468C46002B40F0838094
:1010F0008A42174647D9B2FA82F242B1C2F12000C1
:1011000024FA00F09140974040EA010C94404FEAE5
:101110001748230CBCFBF8F61FFA87FE08FB16C124
:1011200043EA014306FB0EF1994209D9FB1806F187
:10113000FF3080F01981994240F21681023E3B4413
:101140005B1AA4B2B3FBF8F008FB103344EA034483
:1011500000FB0EFEA64509D93C1900F1FF3380F0D3
:101160000581A64540F2028102383C4440EA06402F
:10117000A4EB0E0400261DB1D4400023C5E90043B2
:101180003146BDE8F08702B9FFDEB2FA82F2002AEA
:1011900050D1CB1B4FEA174E1FFA87F80126B3FB3D
:1011A000FEFC210C0EFB1C3341EA034108FB0CF34F
:1011B0008B4207D979180CF1FF3002D28B4200F232
:1011C000E9808446C91AA3B2B1FBFEF00EFB1011F0
:1011D00043EA014408FB00F8A04507D93C1900F197
:1011E000FF3302D2A04500F2D9801846A4EB0804D0
:1011F00040EA0C40BFE78B4209D9002D00F0B180D6
:101200000026C5E9000130463146BDE8F087B3FA53
:1012100083F6002E4AD18B4202D3824200F2B8807C
:10122000841A61EB030101208C46002DA8D0C5E98A
:10123000004CA5E7C2F1200320FA03F6974001FA1B
:1012400002F04FEA174ED9403043030CB1FBFEF6D3
:101250001FFA87F80EFB161143EA014306FB08F15B
:10126000994204FA02F409D9FB1806F1FF3C80F018
:101270008D80994240F28A80023E3B445B1A81B2E3
:10128000B3FBFEF00EFB103341EA034100FB08F311
:101290008B4207D9791800F1FF3C73D28B4271D988
:1012A00002383944CB1A40EA064678E7C6F1200CEA
:1012B00003FA06F422FA0CF31C4320FA0CF701FAA5
:1012C00006F34FEA144E21FA0CF11F433B0CB1FB1D
:1012D000FEF91FFA84F80EFB191143EA014109FBDC
:1012E00008FA8A4502FA06F200FA06F308D96118EC
:1012F00009F1FF3048D28A4546D9A9F102092144B3
:10130000A1EB0A01BFB2B1FBFEF00EFB101147EAE0
:10131000014700FB08F8B84507D9E71900F1FF318C
:101320002ED2B8452CD90238274440EA0940A7EB11
:101330000807A0FB02894F45C64649461AD317D075
:101340005DB1B3EB0E0267EB010707FA0CFCF2404C
:101350004CEA0202F740C5E9002700263146BDE805
:10136000F0872E4628460BE70646E9E61846FDE6D6
:101370004345E5D2B8EB020E69EB04010138DFE723
:101380000846D2E760468DE78146B9E7664675E7CD
:1013900030464AE7ACF1020C394413E702383C44CA
:1013A00024E700BF03685A004CBF43F0004323F01A
:1013B00000431844704700BF2DE9F84329B34F1E7E
:1013C000044615463E464FF0000808EB060101EBC7
:1013D000D171491004EBC1094846FFF7E3FF03460A
:1013E000C80008308F42204409D0AB4209D8FFF72B
:1013F000D9FF0138A8420AD201F10108E5E7AB4262
:1014000005D9884501D04E1EDFE74FF00009484658
:10141000BDE8F883012807D0022807D0044B002834
:101420000CBF1846002070470248704702487047BA
:10143000D91A0000DD1A0000E11A000030B5234B74
:1014400083B004468D1E3BB301A92846AFF300804C
:10145000E8B101992A46FFF7AFFF0146B8B1FFF79F
:10146000A1FF4B68A064012B2BD0002B01F10400DD
:1014700023DBFFF797FF0023C4E913030368002B66
:1014800010DBFFF78FFF2061002003B030BD002389
:101490000920236103B030BD0D490E48091AC91057
:1014A0000191D7E7C3F30360FFF7B4FF0028206181
:1014B00014BF0020092003B030BD0123C4E9130389
:1014C000DCE7002323610520DFE700BF0000000008
:1014D000D02C0100D82801000368DA0710B50446B3
:1014E00006D49B0700F1480009D500F04BFC2368A7
:1014F000590709D51A070ED5DB0613D510BD00F024
:1015000039FC23685907F5D404F1D00000F042FCFF
:1015100023681A07F0D404F5A87000F043FC236890
:10152000DB06EBD404F5E870BDE8104000F07EBCAB
:101530000346006800B11844704700BF0920704797
:10154000704700BF70B504460E46316C2046FFF769
:1015500075FF054688B9336C6361324623692146BD
:10156000012098470828F0D0072806D12846316C7A
:10157000FFF7E6FF301D00F0F1FB0CF06FFF00BF3E
:101580002DE9F0470D1D064614460FCDADF5727DD1
:101590000DF10C0CACE80F000FCDACE80F000FCD37
:1015A000ACE80F0095E80F0002ADF768D6F8188098
:1015B0008CE80F0000232B6021E02B6C73614FF44B
:1015C000F07229467AA800F041FE33697AAA3146C2
:1015D00050469847889BCDE9005821466B64814668
:1015E000334632460120B8470446E8B94FF4F0725A
:1015F0007AA9284600F02AFEB9F1080F1BD1296C00
:101600003046FFF71BFF09345FFA84FA8146002851
:10161000D3D0AB6B4AF01001CDE9005832466B6471
:1016200001203346B84708B14FF0090948460DF587
:10163000727DBDE8F087B9F1070FF5D12046296C1E
:10164000FFF77EFF03A800F089FB00BF406C7047E6
:10165000F0B5CB6B0B640E1D0F4605460FCEF9B0EF
:1016600001AC0FC40FCE0FC40FCE0FC496E80F000D
:101670004FF0FF3684E80F00009606E02B696A46BB
:10168000294698470828044608D110992846FFF7AC
:10169000D5FE0028F2D0092079B0F0BD6846FFF7EA
:1016A0001BFF062CF7D139462846FFF74BFF00BF3A
:1016B00030B4DD6BC160826119461D64002230BC0C
:1016C0005EE700BF70B5C66843690B64AEB90369D5
:1016D0000A4604460D46014602209847072805D0D1
:1016E00008280FD129462046FFF72CFF3046296CE9
:1016F000FFF726FF281D00F031FB0122FFF740FF16
:101700000CF0ACFE0CF0AAFEC2681AB1CA6B0A64F7
:10171000002235E79CE700BF704700BF83680146A1
:101720000BB1012018477047012912D009D873B9AD
:101730000F2A0CD800EB820218465368009A1360F7
:1017400070470339012994BF01200220704702200D
:1017500070470846704700BF10B584B0002303AC43
:101760000A4600941946FFF7DFFF039804B010BD46
:10177000012912D009D873B90F2A0CD800EB8200C6
:10178000009A12684260184670470339012994BFD5
:10179000012002207047022070470846704700BFB2
:1017A00010B584B0002303AC039200940A46194696
:1017B000FFF7DEFF04B010BDF0B5D36B1364151D49
:1017C0008C4606460FCDADF50F7D17AC0FC40FCD7F
:1017D0000FC40FCD0FC495E80F004FF0FF3784E81A
:1017E0000F006546169710E0FFF7DAFF294616A8A6
:1017F000B047034616AA6946082083B9049B984758
:10180000052804460CD0092809D026996846FFF718
:1018100015FE03466A460C2116A8002BE4D00924C5
:1018200016A8FFF759FE20460DF50F7DF0BD00BF4D
:101830002DE9F04FCC6C89B00D4654F8041B06948A
:10184000174600F003081E46002B79D00B0CDAB2C5
:1018500009048DF81D30022304EB820405918DF8F4
:101860001C302B6DB8F1020F08BFAC6B13F00103F5
:101870000CD0384605A900F073FB18B9082009B050
:10188000BDE8F08F092009B0BDE8F08FD4F800A0C2
:10189000BAF1000FEDD0019300F008030293022E7D
:1018A0004AD0B4F800A0B4F802900434AA6C29F02D
:1018B000010B0F2138469344FFF74EFF834539D87B
:1018C0002AF001025A44824294BF002001204FEACC
:1018D000490303F002030AF0010A43EA0A03012B59
:1018E00049D0022B32D0002BCCD1B8F1000F02D05E
:1018F000002840F0CD800434D4F800A0BAF1000FE5
:10190000CDD105A9384600F02BFB0028BAD1019BA8
:10191000002BB3D00F213846FFF71EFF0E210246E1
:101920003846FFF73DFF38466A4A0F21FFF738FF78
:101930000720A8E70020CAE7D4F804900834B5E7E8
:10194000090203230591ADF81C308AE7236823F0D0
:10195000004BB8F1000F45D128B1029A002A5CD0A3
:10196000BBF1000F74D0002B00DA04340BF1010B33
:1019700004EB8B04C0E7B8F1000F19D1B0B1D4E982
:101980000023991C4FEAD2723FF47CAF05F1580155
:101990000133049100F09080201DFFF7C9FD04ABD6
:1019A00001462846AFF3008000285BD10834A3E746
:1019B0000D213846D5F82090FFF7CEFE8145F5D1B0
:1019C000AB6A9C42F2D12046FFF7ECFC0F210246A5
:1019D0003846FFF7E5FE38462A460021FFF7E0FECD
:1019E000072050E70D213846D5F82090FFF7B4FEC8
:1019F000814501D02368B6E7AB6A9C42FAD1042244
:101A00000021C5E90B12A318C5F828B06B63236841
:101A10008B4259DB01230193A8E705F15803CDF868
:101A20000C8004F1040AB04691461E460DE004966F
:101A3000FFF77EFD04AB014600222846AFF300808D
:101A400009F101090AF1040AE8B9D9455046EED175
:101A500038460D21FFF780FE049B2862C5E9093452
:101A6000062010E781460D213846FFF775FEB9F1D3
:101A7000020F286225D12B46049A43F82C2F6B6263
:101A8000AC620620FFE646462368DDF80C806AE774
:101A90002046FFF787FC04340246AC632846144610
:101AA000AFF3008000283FF4EDAE384622460F2108
:101AB000FFF776FE0720E6E638460D21FFF74CFEDD
:101AC0002862049B6B62DBE70BF1010004EB8000F2
:101AD0007AE700BF000000000023A9E60123A7E683
:101AE0000223A5E62DE9F0430646C3B015461C4681
:101AF000042900F2B980DFE801F09A53B729030006
:101B0000002C40F0B180102A00F2AE800368D806A5
:101B100000F1F38020AF384600F092F9B06B00235B
:101B2000012404FA03F22A42014604D051F8042B9E
:101B300047F8232008460133042BF2D1B06338461E
:101B400000F074F9002043B0BDE8F083032C40F0AE
:101B50008B8094B204EB1243102B4FEA124500F233
:101B6000838003681F0700F1D08020AF384600F063
:101B70003BF907EBC501B56B54B10B46E81A01EB15
:101B8000C401E4001A5843F8042B8B42FAD12544CF
:101B90003846B56300F006F9002043B0BDE8F08395
:101BA000012C4FEA124895B25AD0052C5CD108EBB3
:101BB0000509B9F1200F57D8B8F10F0F77D9A94609
:101BC000002D40F08880B36B6DB320AF4FF000095B
:101BD00007EBC807043F03EBC50553F8041B47F8A0
:101BE000041FAB42F9D1B9F1000F0FD06F46414647
:101BF000102938BF102107EBC101843903EBC90557
:101C000053F8040B41F8040FAB42F9D1012C00F05A
:101C10008480B8F10F0FB56345D9B9F1000F02D038
:101C2000684600F0B7F8002043B0BDE8F083DCB9A7
:101C3000876B2346012094B206F1040C00FA03F2EC
:101C40002242394604D051F8042B4CF823200F4689
:101C50000133102BF2D115F40050E4D1B76304E046
:101C600008EB0503102B03D9022043B0BDE8F08335
:101C7000B8F10F0FF8D83368DA0706D5304623F0ED
:101C8000030340F8483B00F079F820AF384600F0F5
:101C900075F8B36B002D99D11D460435B5633846F0
:101CA00000F068F8BFE720A800F06CF8B5E7B9F1DC
:101CB000100F40D9A9F110093368D90708D523F0CE
:101CC0000103304643F0020340F8483B00F05EF861
:101CD000B9F1000F32D033685A0720D4B8F10F0F92
:101CE00025D96F463846C8F1100500F057F8002D89
:101CF000B36B7FF77CAF20AF6AE723F0100333604C
:101D000006F5E87000F09CF804E723F00803036090
:101D100000F5A87000F068F827E720AFBDE730466F
:101D200023F0040340F8D03B00F038F8D6E720A8B1
:101D300000F02CF8D5E74FF00009BDE7B8F10F0F20
:101D40003FF641AF20AF384600F020F8B36B002DCE
:101D50007FF43CAF384600F015F864E700F1340139
:101D600091E838009C46A6464CF8045D90E8FF0FC9
:101D7000E54600BD90EC210B704700BF80EC210BC5
:101D8000704700BF90EC200B704700BF80EC200B29
:101D9000704700BFD0EC200B704700BFC0EC200B99
:101DA000704700BFF0EC0201F0EC0211F0EC0221F0
:101DB000F0EC0231F0EC0241F0EC0251F0EC026187
:101DC000F0EC0271F0EC0281F0EC0291F0EC02A177
:101DD000F0EC02B1F0EC02C1F0EC02D1F0EC02E167
:101DE000F0EC02F1704700BFE0EC0201E0EC021100
:101DF000E0EC0221E0EC0231E0EC0241E0EC0251C7
:101E0000E0EC0261E0EC0271E0EC0281E0EC0291B6
:101E1000E0EC02A1E0EC02B1E0EC02C1E0EC02D1A6
:101E2000E0EC02E1E0EC02F1704700BFB0FC0181A0
:101E3000B0FC0191B0FC01A1B0FC01B1704700BF42
:101E4000A0FC0181A0FC0191A0FC01A1A0FC01B1BA
:101E5000704700BFEC4600B52DE900502DE9FF1F8B
:101E60004FF000032DE90C0001A9FFF7F1FBDDF8AD
:101E700040E012B0704700BFEC4600B52DE90050BD
:101E80002DE9FF1F4FF000032DE90C0001A9FFF71A
:101E900019FCDDF840E012B0704700BFEC4600B519
:101EA0002DE900502DE9FF1F4FF000032DE90C0034
:101EB00001A9FFF729FCDDF840E012B0704700BF30
:101EC000EC4600B52DE900502DE9FF1F4FF000034F
:101ED0002DE90C0001ABFFF7EBFBDDF840E012B0A1
:101EE000704700BFEC4600B52DE900502DE9FF1FFB
:101EF0004FF000032DE90C0001AAFFF75DFCDDF8AF
:101F000040E012B0704700BF027A7AB9437AA3B1B9
:101F10004268013B10B4437213680321141D01721F
:101F20001A024460026010BC180E70470368013A40
:101F300002721A020260180E7047B020704700BF8C
:101F400000B585B003AA0023009219460C22FFF7C2
:101F5000EBFB039805B05DF804FB00BFF0E700BFA2
:101F60002DE9F043054685B00E464FF00008304697
:101F7000FFF7CAFFB028044600F0B280070620D55C
:101F800000F0F003802B4DD0902B36D0A02B60D0EA
:101F9000B02B74D0C02B00F08B8000F0F803D02B56
:101FA0000BD100F00702013242F400220523012187
:101FB0002846FFF797FD0028D9D0092005B0BDE8D5
:101FC000F0830DF10C09002319468700CDF800902D
:101FD0000D222846FFF7A8FBFFB2039BCDF8009027
:101FE000043760064CBFDF1BFF18002319460D2283
:101FF00028460397FFF7BCFBB9E700F00D030D2B54
:10200000DBD003AF002300F00F02194600972846EB
:10201000FFF78AFB0023009719460D222846FFF799
:10202000A7FBA4E73046FFF76FFF24022043B0F57B
:10203000004FC2D004010023A2B219462846FFF780
:1020400051FD0028B9D114F4004F18BF4FF001081A
:102050008DE7C24302F007034FF47F621A41010784
:1020600002F47F624FF0000348BF42F480421946F9
:102070002846FFF737FD00283FF479AF9DE7B128E8
:1020800033D0B22800F08B80B32839D000F0FC03A5
:10209000B42B92D000F007020132012342F4002257
:1020A00019462846FFF71EFD00283FF460AF84E77D
:1020B000C62842D0C7284CD000F0F803C02B5BD014
:1020C000C82860D0C9287FF478AF3046FFF71CFFDE
:1020D000020300F00F0002F470220130024365E7B2
:1020E000B8F1000F18D0002068E73046FFF70CFF6A
:1020F000024600283FF461AF10F0F003D0D05CE757
:102100003046FFF701FF010300F00F0001F47021DA
:10211000421C01230A43C3E703AC43460E22414657
:1021200000942846FFF700FB0094284643460F2200
:102130004146FFF71DFB404640E73046FFF7E4FE0F
:10214000010300F00F0001F47021421C03230A4335
:10215000A6E73046FFF7D8FE024600283FF42DAF31
:1021600010F0F0037FF429AF04212846FFF7BAFCF2
:1021700000283FF4FCAE20E700F00F0201320323F9
:1021800042F420228CE73046FFF7BEFE00F0F0025A
:1021900000F00F031032013343EA023206E7002356
:1021A0000DF10C090D221946CDF800902846FFF7D5
:1021B000BBFA3046FFF7A8FE02064FF002070CD527
:1021C000039B00F07F00B840034430460393FFF7C1
:1021D0009BFE030607F10707F2D4039BCDF800909E
:1021E00000F07F0403F50172BC400023144419463B
:1021F0000D2228460394FFF7BBFAB8E610B5C26C6F
:1022000084B0536803248DF80C401B0202F10804CB
:102210000846D279019301A902948DF80D20FFF7A9
:102220009FFE04B010BD00BF08B5FFF797FE806C9D
:1022300008BD00BF08B5FFF791FEC06CC37902333B
:1022400000EB830008BD00BF704700BF844641EA31
:10225000000313F003036DD1403A41D351F8043B1E
:1022600040F8043B51F8043B40F8043B51F8043B70
:1022700040F8043B51F8043B40F8043B51F8043B60
:1022800040F8043B51F8043B40F8043B51F8043B50
:1022900040F8043B51F8043B40F8043B51F8043B40
:1022A00040F8043B51F8043B40F8043B51F8043B30
:1022B00040F8043B51F8043B40F8043B51F8043B20
:1022C00040F8043B51F8043B40F8043B51F8043B10
:1022D00040F8043B51F8043B40F8043B403ABDD27F
:1022E000303211D351F8043B40F8043B51F8043B21
:1022F00040F8043B51F8043B40F8043B51F8043BE0
:1023000040F8043B103AEDD20C3205D351F8043BAF
:1023100040F8043B043AF9D2043208D0D2071CBF7B
:1023200011F8013B00F8013B01D30B8803806046A4
:10233000704700BF082A13D38B078DD010F003031A
:102340008AD0C3F10403D21ADB071CBF11F8013B8A
:1023500000F8013B80D331F8023B20F8023B7BE7D9
:10236000043AD9D3013A11F8013B00F8013BF9D204
:102370000B7803704B7843708B788370604670479E
:1023800001F0FF01102A2BDB10F0070F08D010F826
:10239000013B013A8B422DD010F0070F42B3F6D12A
:1023A000F0B441EA012141EA014122F007047FF043
:1023B00000070023F0E80256083C85EA010586EA9A
:1023C000010685FA47F5A3FA87F586FA47F6A5FAD6
:1023D00087F68EB9EED1F0BC01F0FF0102F00702E2
:1023E00032B110F8013B013A83EA010313B1F8D18D
:1023F0000020704701387047002D06BF354603386E
:10240000073815F0010F07D1013015F4807F02BFA6
:10241000013015F4C03F0130F0BC0138704700BFF7
:1024200000000000000000000000000000000000AC
:10243000000000000000000000000000000000009C
:1024400090F800F06DE9024520F007016FF0000CF4
:1024500010F0070491F820F040F049804FF000049C
:102460006FF00700D1E9002391F840F000F1080077
:1024700082FA4CF2A4FA8CF283FA4CF3A2FA8CF3AF
:102480004BBBD1E9022382FA4CF200F10800A4FA16
:102490008CF283FA4CF3A2FA8CF3E3B9D1E904236A
:1024A00082FA4CF200F10800A4FA8CF283FA4CF3A1
:1024B000A2FA8CF37BB9D1E9062301F1200182FA5B
:1024C0004CF200F10800A4FA8CF283FA4CF3A2FA61
:1024D0008CF3002BC6D0002A04BF04301A4612BA6F
:1024E000B2FA82F2FDE8024500EBD2007047D1E972
:1024F000002304F00305C4F100004FEAC50514F001
:10250000040F91F840F00CFA05F562EA05021CBFD1
:1025100063EA050362464FF00004A9E780B590B076
:1025200000AF78600B46FB70FB78002B27D107F1DA
:10253000240300221A605A609A60DA601A615A61B4
:102540002D4A7B6852F833307B62012387F82830AC
:10255000012387F829304FF0FF333B6307F1240351
:1025600018460AF079F9244A7B68DB0013440122FB
:102570001A717B68DB00204A1344FB6336E0FB786A
:10258000012B31D107F10C0300221A605A609A60C6
:10259000DA601A615A61184A7B6852F83330FB607E
:1025A00001233B754FF0FF33BB6107F10C03184665
:1025B0000AF0C4F9104A7B68DB00134402221A7146
:1025C0007B68292B0AD97B682C2B07D80A4A7B68A1
:1025D00052F83330012118460AF0ECF97B68DB0031
:1025E000054A1344FB6301E00023FB63FB6B1846C1
:1025F0004037BD4680BD00BF0000002080B586B0DA
:1026000000AF78607B683B613B69002B0BD03B6976
:102610001B79012B07D13B691B6818460AF0D8F9D2
:102620000346FB7501E00023FB753B691B681B0A31
:10263000DBB2FB603B691B68DBB2BB60FB68022B53
:1026400002D1BB68062B05D0FB68002B09D1BB6803
:10265000042B06D1FB7D002B0CBF01230023DBB232
:10266000FB75FB7D18461837BD4680BD80B586B02A
:1026700000AF78600B46FB707B687B617B69002B49
:102680002FD07B691B79022B2BD17B691B681B0A1E
:10269000DBB23B617B691B68DBB2FB603B69012BF2
:1026A00005D1FB68162B08D0FB68152B05D03B69BC
:1026B000042B0FD1FB681A2B0CD17B691A68FB78AD
:1026C000012B14BF01230023DBB2194610460AF088
:1026D00071F906E07B691B68FA78114618460AF022
:1026E00069F900BF1837BD4680BD80B485B000AF22
:1026F00078607B68FB60FB68002B0ED0FB681B7961
:10270000022B03D1FB6800221A7106E0FB681B79DB
:10271000012B02D1FB6800221A7100BF1437BD469D
:102720005DF8047B7047000080B584B000AFF860AE
:10273000B9601346FB71BB681F2B05D90D4B0E4AC0
:10274000FF210E480BF092FEFB68BA6853F8223066
:1027500023F0807323F4E063FA79120202F4E0625A
:1027600043EA0201FB68BA6843F8221000BF103741
:10277000BD4680BD5C1001006412010068100100BC
:1027800080B483B000AF78600B46FB707B681B6839
:1027900023F01802FB78DB0003F018031A437B6870
:1027A0001A6000BF0C37BD465DF8047B704700001F
:1027B00080B58EB000AF786187ED020B87ED001B0E
:1027C000524A7B695B01134411331B78002B40F0A4
:1027D0008780002387F82830002387F829300023DA
:1027E00087F82A308023FB62484A7B695B011344E7
:1027F0001868464A7B695B01134404331968434AED
:102800007B695B01134410331B781A46FFF78CFF7A
:102810003E4A7B695B01134408331B6807F12802B9
:102820001146184609F040FE384A7B695B011344A3
:1028300008331B68DBB200220121184609F0BAFEFA
:10284000324A7B695B011344113304221A702F4A08
:102850007B695B01134403F11801D7E90223C1E945
:10286000002302233B7600237B76284A7B695B01A9
:1028700013441833D3E9002310461946FEF7A8FB8A
:102880000346FB61D7E90001FEF7A2FB03463B626A
:102890000023BB841D4A7B695B01134408331B681A
:1028A0001B4A52F823303B630021386BFFF768FF67
:1028B000164A7B695B01134408331868134A7B6925
:1028C0005B0113440C331B68DAB207F11803194695
:1028D00009F0CEFE7B695B010C4A13447B630FE079
:1028E0000A4A7B695B01134411331B78042B05D121
:1028F0007B695B01054A13447B6301E000237B6332
:102900007B6B18463837BD4680BD00BF780100207C
:102910009C1C010080B483B000AF786000BF0C370E
:10292000BD465DF8047B704780B58AB000AFF860A3
:1029300087ED000BFB687B627B6A002B2CD07B6AE7
:102940005B7C042B28D102233B7400237B747B6ABD
:10295000D3E9062310461946FEF73AFB03467B618E
:10296000D7E90001FEF734FB0346BB610023BB83BC
:102970007B6A9B680A4A52F823303B620021386A1E
:10298000FFF7FEFE7B6A98687B6ADB68DAB207F1C4
:102990001003194609F06CFE00BF2837BD4680BD04
:1029A0009C1C010080B485B000AF78607B68FB6040
:1029B000FB68002B06D0FB685B7C042B02D1FB6814
:1029C00000225A7400BF1437BD465DF8047B70477F
:1029D00080B483B000AF786000BF0C37BD465DF8AF
:1029E000047B704780B586B000AF786026497A686E
:1029F00013465B0013449B000B4409331B78002BE8
:102A000027D107F10803184609F09CF90323FB724C
:102A10001D497A6813465B0013449B000B441B68F6
:102A200007F108021146184609F09EF916497A681E
:102A300013465B0013449B000B44093303221A70B6
:102A40007A6813465B0013449B000F4A13447B6172
:102A500015E00D497A6813465B0013449B000B4454
:102A600009331B78032B08D17A6813465B001344A3
:102A70009B00054A13447B6101E000237B617B6975
:102A800018461837BD4680BD3804002080B485B094
:102A900000AFF8600B467A60FB7200BF1437BD468A
:102AA0005DF8047B7047000080B58AB000AFF86025
:102AB000B9601346FB71FB68FB61FB69002B3AD0E0
:102AC000FB691B7A3B750023BB7500237B75FB6993
:102AD0001B680121184609F08FF9FB691868FB692A
:102AE0005B6807F11402194609F0A6F9FB691A6838
:102AF000FB695B681946104609F0BAF9FB691A6868
:102B0000FB695B681946104609F0D6F903467B83DA
:102B10007B8B07EE903AF8EE677A17EE900AFDF796
:102B200027FF0DA3D3E90023FDF77AFF02460B46EA
:102B3000C7E9082305E04FF000024FF00003C7E9A2
:102B40000823B968D7E90823C1E9002300BF283763
:102B5000BD4680BDAFF30080100010001000F03EB5
:102B600080B483B000AF786000BF0C37BD465DF81D
:102B7000047B704780B483B000AF786000BF0C372F
:102B8000BD465DF8047B704780B483B000AF7860C9
:102B900000BF0C37BD465DF8047B704780B584B03C
:102BA00000AFF860B9607A60BB680F2B06D90A4B9A
:102BB0000A4A40F2E2210A480BF058FCFA68BB6866
:102BC0005B01134403F5805310337A681A6000BF29
:102BD0001037BD4680BD00BFA01001009C1201004F
:102BE000CC10010080B584B000AFF860B960134626
:102BF000FB71BB680F2B06D90D4B0E4A4FF4607169
:102C00000D480BF033FCBB685B0103F580531833B0
:102C1000FA681344043303F1424303F580135B0164
:102C20000433FA7992B21A8000BF1037BD4680BDD6
:102C3000A0100100B8120100CC10010090B587B0BF
:102C400000AFF8607A603B600B46FB7200237B614B
:102C5000FB681B68032B00F0E481032B05D8012BD4
:102C600000F09880022B00F04781954B00221A60FB
:102C7000934B1B68934A52F82330002B41D1904B61
:102C80001B68914ADB00134400229A718C4B1B682D
:102C90008D4ADB00134400221A71894B1B688A4A53
:102CA000DB00134400225A71854B1B68864A4FF49F
:102CB000E13142F83310824B1B68184606F0FCFAEB
:102CC0007F4B1B689B01814A13448149184609F0D8
:102CD000F7FA7B4B18687A4B1A6813461B019B1A4C
:102CE0009B007C4A9918764B1B68DB00764A13449C
:102CF0001A460AF0E5FB724B1B68724A012142F842
:102D000023107B68B3F1FF3F20D06D4B1A687249E6
:102D100013469B0013449B000B4454221A60684BDB
:102D20001A686D4913469B0013449B000B440833FB
:102D30006A4A1A60624B1A68674913469B0013443B
:102D40009B000B440C33664A1A6015E05C4B1A6812
:102D5000614913469B0013449B000B4404335722E4
:102D60001A60574B1A685C4913469B0013449B003A
:102D70000B4410335B4A1A60514B1B68504A12686F
:102D8000594941F823204E4B1B689B00564A134477
:102D90007B61DBE14A4B01221A60494B1B68494ABF
:102DA00052F82330002B41D1454B1B68464ADB00CB
:102DB000134400229A71424B1B68434ADB001344C0
:102DC00000221A713E4B1B683F4ADB00134400226D
:102DD0005A713B4B1B683C4A4FF4E13142F83310C7
:102DE000374B1B68184606F067FA354B1B689B018A
:102DF000364A13443649184609F062FA304B1868CF
:102E00002F4B1A6813461B019B1A9B00314A9918D5
:102E10002B4B1B68DB002C4A13441A460AF050FB6C
:102E2000274B1B68274A012142F823107B68B3F126
:102E3000FF3F20D0224B1A68274913469B001344BA
:102E40009B000B4400221A601D4B1A68224913464E
:102E50009B0013449B000B440833244A1A60184B10
:102E60001A681D4913469B0013449B000B440C3306
:102E70001F4A1A6015E0124B1A68174913469B0047
:102E800013449B000B44043300221A600C4B1A6855
:102E9000114913469B0013449B000B441033154A01
:102EA0001A60074B1B68064A12680F4941F8232035
:102EB000034B1B689B000C4A13447B6146E100BF37
:102EC000B0150020B4150020D0140020E811002017
:102ED000780600206813002008150020E810002064
:102EE0003C11002090110020981500209011002026
:102EF00090110020E8110020AD4B02221A60AC4B6B
:102F00001B68AC4A52F82330002B41D1A84B1B68F8
:102F1000A94ADB00134400229A71A54B1B68A64AFC
:102F2000DB00134400221A71A14B1B68A24ADB008C
:102F3000134400225A719E4B1B689F4A4FF4E131A3
:102F400042F833109A4B1B68184606F0B5F9984BB7
:102F50001B689B01994A13449949184609F0B0F936
:102F6000934B1868924B1A6813461B019B1A9B00DF
:102F7000944A99188E4B1B68DB008F4A13441A46FB
:102F80000AF09EFA8A4B1B688A4A012142F82310F4
:102F90007B68B3F1FF3F20D0854B1A688A491346FE
:102FA0009B0013449B000B4400221A60804B1A685C
:102FB000854913469B0013449B000B440833834A06
:102FC0001A607B4B1A68804913469B0013449B0090
:102FD0000B440C337E4A1A6015E0754B1A687A4927
:102FE00013469B0013449B000B44043300221A60D9
:102FF0006F4B1A68744913469B0013449B000B44A3
:103000001033744A1A606A4B1B68694A1268724925
:1030100041F82320664B1B689B006F4A13447B6179
:1030200094E0634B03221A60614B1B68614A52F8BB
:103030002330002B41D15E4B1B685F4ADB001344F9
:1030400000229A715A4B1B685B4ADB001344002232
:103050001A71574B1B68584ADB00134400225A71FF
:10306000534B1B68544A4FF4E13142F83310504B34
:103070001B68184606F020F94D4B1B689B014F4A10
:1030800013444F49184609F01BF9494B1868484B3F
:103090001A6813461B019B1A9B004A4A9918444B15
:1030A0001B68DB00444A13441A460AF009FA404BF5
:1030B0001B68404A012142F823107B68B3F1FF3FAF
:1030C00020D03B4B1A68404913469B0013449B0099
:1030D0000B4400221A60364B1A683B4913469B008A
:1030E00013449B000B4408333C4A1A60304B1A6867
:1030F000354913469B0013449B000B440C33384A5C
:103100001A6015E02A4B1A682F4913469B00134496
:103110009B000B44043300221A60254B1A682A498D
:1031200013469B0013449B000B4410332D4A1A6036
:103130001F4B1B681E4A1268274941F823201C4B6D
:103140001B689B00244A13447B6100BF7B68B3F17A
:10315000FF3F27D0164B1A6813461B019B1A9B0092
:103160002833184A13440433114A12681E4918467A
:1031700009F0E8F80E4B18680D4B1A68124913460F
:103180009B0013449B000B4408331968084B1A68D2
:103190000D4C13469B0013449B0023441B681A46A6
:1031A00000F0E0F87B6918461C37BD4690BD00BFB3
:1031B000B0150020B4150020D0140020E811002024
:1031C00078060020681300200815002090110020C8
:1031D00090110020E8110020981500209011002087
:1031E00090110020E81100201134000080B483B059
:1031F00000AF78603960002318460C37BD465DF893
:10320000047B704780B483B000AF786008461146F5
:103210001A460346FB700B46BB7013467B700023B7
:1032200018460C37BD465DF8047B704780B586B004
:1032300000AFF860B9607A60FB683B613B69002BC6
:1032400033D03B691B681F4AD35C012B2DD13B69EE
:103250001B681D4A52F82330012B0FD13B691A68B5
:103260001A4913469B0013449B000B4408331B6808
:103270007A681946B868FEF7E9FF0EE03B691A68FC
:10328000124913469B0013449B000B440C331B68EC
:103290007A681946B868FEF7D9FF3B691B68094A86
:1032A0000021D1540023FB7506E07A680021B8683C
:1032B0000BF01EFC2023FB75FB7D18461837BD461E
:1032C00080BD00BF001500208015002008150020DB
:1032D00080B586B000AFF860B9607A60FB683B618A
:1032E0003B69002B2AD03B691B68002118460AF075
:1032F0003BFA0346082B21D03B691A681349134651
:103300009B0013449B000B4410331B687A68B96818
:103310001846FEF79BFF3B6918683B691A680B4922
:1033200013469B0013449B000B4410331B687A68C0
:1033300019460AF0F5F90346FB7501E02023FB75F9
:10334000FB7D18461837BD4680BD00BF081500201C
:1033500080B483B000AF786000BF0C37BD465DF825
:10336000047B704780B588B000AFF860B9607A60C0
:10337000FB68052B06D9214B214A40F289112148CF
:103380000BF074F8204AFB6852F82330FB61FB69AC
:1033900093F82C301B09DBB21A461C4B53F8223031
:1033A000BB61FB6993F82C3003F00F037B61FB6971
:1033B0005B78DBB2002B01D009231AE0FB69012204
:1033C0005A70BB681A467969B869FFF7E7FB7A68F3
:1033D0007969B86908F0B2FE01227969B869FFF726
:1033E00001FC7B69DBB201221946B86908F091FD46
:1033F000002318462037BD4680BD00BF04110100E0
:103400007812010024110100246300205C1A0100DD
:1034100080B582B000AF78600B46FB707B681846C1
:1034200000F004F800BF0837BD4680BD80B586B007
:1034300000AF78607B68052B06D93C4B3C4A40F2D4
:10344000AD113C480BF012F83B4A7B6852F8233030
:103450007B617B6993F82C301B09DBB21A46374B32
:1034600053F822303B617B6993F82C3003F00F0353
:10347000FB600022F9683869FFF7B4FBFB68DBB238
:1034800000221946386908F044FD7B69DB78DBB21D
:10349000002B04D07B691033184608F083F97B6950
:1034A00000225A70264A7B68134401221A70254A6A
:1034B0007B6852F82330002B1AD123497A681346CF
:1034C0009B0013449B000B440C3319681E487A6818
:1034D00013469B0013449B0003441B681A467868FC
:1034E000FFF740FF174A7B68012142F8231019E0DB
:1034F00015497A6813469B0013449B000B4408331C
:10350000196811487A6813469B0013449B000344D2
:103510001B681A467868FFF725FF0A4A7B68002176
:1035200042F8231000BF1837BD4680BD04110100CA
:10353000D012010024110100246300205C1A010054
:1035400000150020801500200815002080B582B0ED
:1035500000AF786008F030FB034618460837BD46D8
:1035600080BD80B483B000AF78607B68023303F124
:10357000424303F580135B011C3301221A7000BF24
:103580000C37BD465DF8047B704780B483B000AF54
:1035900078607B68023303F1424303F580135B01DB
:1035A0000C3300221A7000BF0C37BD465DF8047B57
:1035B000704780B483B000AF78607B68023303F15A
:1035C000424303F580135B010C3301221A7000BFE4
:1035D0000C37BD465DF8047B704780B483B000AF04
:1035E00078600B46FB707B68023303F1424303F5BE
:1035F00080135B0110331A46FB78137000BF0C3741
:10360000BD465DF8047B704780B483B000AF78603E
:103610007B681B79DBB218460C37BD465DF8047B2E
:10362000704780B483B000AF78600B46FB707B6856
:10363000FA781A7100BF0C37BD465DF8047B7047FD
:1036400080B483B000AF78600B46FB707B68DB789A
:10365000DBB21A46FB7842FA03F303F00103002BB6
:1036600014BF01230023DBB218460C37BD465DF8BA
:10367000047B704780B483B000AF78607B6802330E
:1036800003F1424303F580135B0114331B78DBB273
:10369000002B14BF01230023DBB218460C37BD46B4
:1036A0005DF8047B704780B483B000AF78600B4650
:1036B000FB707B68023303F1424303F580135B0127
:1036C0001833FA781A7000BF0C37BD465DF8047BDA
:1036D000704780B483B000AF78607B680222DA70F4
:1036E00000BF0C37BD465DF8047B704780B584B0E1
:1036F00000AFF860B9601346FB71BB681F2B05D99A
:103700000B4B0C4AD9210C480AF0B0FEBB689B0059
:10371000FA68134403F1424303F580135B01143349
:103720001A46FB79136000BF1037BD4680BD00BF4D
:103730008C110100141301009811010080B584B0B0
:1037400000AFF860B9601346FB71BB681F2B05D949
:103750000D4B0E4AFF210E480AF088FEFB68BA683E
:1037600053F8223023F0807323F4E063FA791202D5
:1037700002F4E06243EA0201FB68BA6843F82210EF
:1037800000BF1037BD4680BD8C1101000013010041
:103790009811010080B584B000AF78607B681B6829
:1037A0000F4A52F82330FB607B681B68184600F014
:1037B000EFF97B681B68184608F074FAF86809F09E
:1037C00025F9F868FFF7CDFE0121F868FFF76BFFD8
:1037D0000449786800F0FCF800BF1037BD4680BD92
:1037E000F4120100A086010080B584B000AF7860BB
:1037F0007B681B68054A52F82330FB60F86809F0C3
:103800004BF9002318461037BD4680BDF412010065
:1038100080B584B000AF78600023BB607B681B6814
:103820000E4A52F82330FB60F868FFF723FF034687
:10383000002B02D0F86809F03FF90023BB6004E0D8
:1038400000BF00BFBB680133BB60BB68C72BF7D9A3
:10385000002318461037BD4680BD00BFF41201009A
:1038600080B586B000AF78600B46FB70104B3B61B3
:103870007B681B680F4A52F82330FB6000237B6192
:103880000CE0FB781946F868FFF7DAFE0346002BD8
:1038900001D0002307E07B6901337B617A693B69D2
:1038A0009A42EED3012318461837BD4680BD00BFAB
:1038B000A0860100F412010080B584B000AF7860EA
:1038C0007B681B68104A52F82330FB60012178683E
:1038D000FFF7C6FF0346002B01D0022310E0F86873
:1038E000FFF7F7FE07217868FFF7BAFF0346002BC2
:1038F00001D0022304E00021F868FFF7A1FE03468F
:1039000018461037BD4680BDF412010080B584B062
:1039100000AF78607B681B680A4A52F82330FB606E
:1039200001217868FFF79CFF0346002B01D001239B
:1039300003E0F868FFF7CDFE002318461037BD46B8
:1039400080BD00BFF412010080B584B000AF786084
:1039500039607B681B68094A52F82330FB603B687A
:10396000DBB21946F868FFF75CFE7868FFF7A4FF42
:10397000034618461037BD4680BD00BFF412010053
:1039800080B586B000AFF860B9607A60FB681B68EC
:103990000E4A52F823307B617B68002B03D0786994
:1039A000FFF707FE02E07869FFF7EFFD7869FFF7A0
:1039B0002BFE03461A46BB681A70F868FFF7A6FF8D
:1039C000034618461837BD4680BD00BFF4120100FB
:1039D00080B584B000AF786039607B681B680E4AA0
:1039E00052F82330FB607B681B681846FFF7AEFD7A
:1039F0000346BB603B68094A82FB03129211DB1746
:103A0000D31A1A460023B968F86809F00DF800BF08
:103A10001037BD4680BD00BFF4120100D34D6210C7
:103A200090B589B000AFF860B9607A603B60F86823
:103A3000FFF7DAFE0346002B05D0F868FFF7E8FE33
:103A40006FF0010355E0BB6843F001031946F868C5
:103A5000FFF77AFF0346002B05D0F868FFF7D8FE82
:103A60004FF0FF3345E0FB681B68244A52F82330CF
:103A7000BB610021B869FFF7B0FD0023FB6124E0C2
:103A8000FB69002B02D107F1120303E0FB69013B44
:103A90007A6813447B613B68013BFA699A420CBF28
:103AA00001230023DBB2FB74FB7C1A467969F868BA
:103AB000FFF766FF0346002B04D0F868FFF7A8FE67
:103AC000FB6916E0FB690133FB61FA693B689A42C6
:103AD000D6DB3B6B002B02D0F868FFF799FEFB6941
:103AE000013B7A68D418B869FFF78EFD034623704E
:103AF0003B6818462437BD4690BD00BFF412010054
:103B000080B586B000AFF860B9607A603B60F86855
:103B1000FFF76AFE0346002B05D0F868FFF778FE32
:103B20006FF0010330E0BB6803F0FE031946F8684C
:103B3000FFF70AFF0346002B05D0F868FFF768FE81
:103B40004FF0FF3320E000237B6112E07B697A684D
:103B500013441B781946F868FFF7F6FE0346002B5E
:103B600004D0F868FFF754FE7B690DE07B690133F0
:103B70007B617A693B689A42E8DB3B6A002B02D0A2
:103B8000F868FFF745FE3B6818461837BD4680BD0C
:103B900080B582B000AF78607B68002B03D07B6873
:103BA000012B15D029E0052218211648FFF7C6FD84
:103BB000012218211348FFF799FD05221921114808
:103BC000FFF7BCFD012219210E48FFF78FFD14E01D
:103BD00002220A210C48FFF7B1FD01220A210A48FE
:103BE000FFF784FD02220B210748FFF7A7FD012202
:103BF0000B210548FFF77AFD00BF00BF0837BD461F
:103C000080BD00BF00D0044000B0044080B584B047
:103C100000AF78600B46FB707B68012B11D80C4914
:103C20007B687A6841F823207B689B00084A13442C
:103C30001846FFF7AFFD7B689B00054A1344FB6005
:103C400001E00023FB60FB6818461037BD4680BDCD
:103C5000CC15002080B584B000AF786039607B68F7
:103C6000002B07D03B6819467868FFF7B1FE0023A8
:103C7000FB7301E00823FB73FB7B18461037BD463E
:103C800080BD80B588B002AFF8607A603B600B46BB
:103C90007B8100237B6197F82030002B0CBF012330
:103CA0000023DBB23B61FB68002B19D07B895900F4
:103CB0003A683B69009313467A68F868FFF7B0FEEC
:103CC00003467B617B6913F1020F01D1012308E0F8
:103CD0007B69B3F1FF3F01D1042302E0002300E040
:103CE000082318461837BD4680BD80B588B002AF9E
:103CF000F8607A603B600B467B8100237B6197F81C
:103D00002030002B0CBF01230023DBB23B61FB689A
:103D1000002B19D07B8959003A683B690093134600
:103D20007A68F868FFF7ECFE03467B617B6913F164
:103D3000020F01D1012308E07B69B3F1FF3F01D1FC
:103D4000042302E0002300E0082318461837BD468C
:103D500080BD80B483B000AF786000BF0C37BD4633
:103D60005DF8047B7047000080B586B000AF7861D5
:103D7000184B1B681B68002B0CBF01230023DBB210
:103D80001A46154B1A7011E03B461449184605F0C7
:103D900064FE01F0B1FA0F4B1B681B68002B14BFC7
:103DA00001230023DBB21A460D4B1A700A4B1B7815
:103DB000DBB2002BE8D1084B00221A70786900F0C2
:103DC00011F8002005F0A2FD002318461837BD4663
:103DD00080BD00BF301301007A060020E0150020EE
:103DE000D415002080B582B000AF7860074B012267
:103DF0001A60074B00221A7004F090F9054805F08C
:103E000019FE002318460837BD4680BDFC1500206A
:103E10007A060020D815002080B586B000AF786102
:103E2000396105F019F805F0E1F90A4B1B68002229
:103E30001A6003F021FD00209FED070A05F0B8FC91
:103E40003B460649184605F008FE00231846183779
:103E5000BD4680BD301301006F12833AD815002093
:103E6000F0B587B000AF034687ED000BFB814FF044
:103E700000024FF00003D7E90001FDF757F80346B1
:103E8000002B18D04FF00002204BD7E90001FDF7BE
:103E900043F80346002B0BD0B7F90E40D7E90001D9
:103EA000FDF796F80346DBB204FA03F3FB8226E043
:103EB0000023FB8223E04FF00002154BD7E90001FD
:103EC000FDF734F80346002B0FD0B7F90E603C68BD
:103ED0007B6883F0004520462946FDF779F80346C4
:103EE000DBB246FA03F3FB8209E0B7F90E30002B90
:103EF00003DA4FF6FF73FB8201E00023FB82B7F980
:103F0000163018461C37BD46F0BD00BF00002E40DD
:103F100000002EC080B485B000AF5D4B93F8CF3E5B
:103F20001A465B4B93F8CE3ED31ABB60BB68FB606E
:103F3000574B93F8CF3E1A46BB68934203D90023F0
:103F4000FB600023BB60524B93F8D23E002B0DD197
:103F5000FB68DBB2002B04D14E4B002283F8A02E6D
:103F60003DE04C4BFF2283F8A02E38E0484B93F8FD
:103F7000D23E002B08D0FB68DAB2454B93F8D23E14
:103F8000B2FBF3F3DBB200E0FF23424A82F8A03E2B
:103F9000FB68DAB23F4B93F8A01E3D4B93F8D23E3C
:103FA00011FB03F3DBB2D31AFB71FB79002B16D0A4
:103FB000FA79374B93F8D23E5B08DBB21946344BA3
:103FC00093F8D23E03F001030B449A4207DB314BD6
:103FD00093F8A03E0133DAB22E4B83F8A02E2C4B7F
:103FE00093F8D13E002B0DD1BB68DBB2002B04D17E
:103FF000284B002283F8A12E3DE0264BFF2283F8B8
:10400000A12E38E0224B93F8D13E002B08D0BB689C
:10401000DAB21F4B93F8D13EB2FBF3F3DBB200E010
:10402000FF231C4A82F8A13EBB68DAB2194B93F811
:10403000A11E174B93F8D13E11FB03F3DBB2D31A49
:10404000FB71FB79002B16D0FA79114B93F8D13E16
:104050005B08DBB219460E4B93F8D13E03F0010327
:104060000B449A4207DB0B4B93F8A13E0133DAB2C3
:10407000084B83F8A12E064B93F8CE2E044B83F801
:10408000842E00BF1437BD465DF8047B704700BF27
:1040900000160020E024002080B58AB000AFF86050
:1040A000B9607A60624BB3F8643E1A46604B93F88D
:1040B000CD3E13443B623B6AB3F5803F02D34FF6DB
:1040C000FF733B62BB681A785A4B93F8A63E9A423C
:1040D0000ED1584BD3F8983E3A6A9A4208D8554BBD
:1040E000012283F8A52E534B0022C3F8982E9AE0A4
:1040F0007B6893ED007BB0EE470AF0EE670A05F0AF
:1041000081FDB0EE407AF0EE607A87ED047B4FF0EF
:104110000002494BD7E90401FCF7F4FE0346002BEB
:1041200014D04FF000024FF00003D7E90401FCF770
:10413000FDFE0346002B06D0D7E90401FCF748FF3B
:104140000346FB8305E00023FB8302E04FF6FF7389
:10415000FB83FB8B364AB2F8642E9B1A3B62FB8BC7
:104160003A6A9A4201D900233B62314B93F8CD3E23
:104170001A463B6A9B1A7B627A6A3B6A9A4201D969
:1041800000237B622B4BD3F8983E7A6A9A4208D878
:10419000284B032283F8A52E264B0022C3F8982E25
:1041A00041E0234B93F8D03E032B04D0214B132244
:1041B00083F8A52E37E0FB68D3E900231C4901F6FC
:1041C000F851C1E900231B4B93F8A62E184B83F836
:1041D000DE2E184B93F8A62E154B83F8DA2E154BCE
:1041E00093F8A72E124B83F8DC2E124B93F8A72ED0
:1041F0000F4B83F8D92E0F4B93F8A72E0C4B83F857
:10420000D82E0C4B93F8A72E094B83F8DB2E094BC5
:1042100093F8A62E064B83F8DF2E064B93F8A72EB5
:10422000034B83F8DD2E00BF2837BD4680BD00BF9D
:1042300000160020E02400200000F04080B483B08D
:1042400000AF7860274BD3F8983E274AB2F8642E27
:10425000934208D3234B012283F8A52E214B002241
:10426000C3F8982E37E07B68D3E900231E4901F696
:10427000F851C1E900231B4B93F8A62E1A4B83F883
:10428000DE2E184B93F8A62E174B83F8DA2E154B1B
:1042900093F8A72E144B83F8DC2E124B93F8A72E1D
:1042A000114B83F8D92E0F4B93F8A72E0E4B83F8A2
:1042B000D82E0C4B93F8A72E0B4B83F8DB2E094B13
:1042C00093F8A62E084B83F8DF2E064B93F8A72E03
:1042D000054B83F8DD2E00BF0C37BD465DF8047B2F
:1042E000704700BFE02400200016002080B485B095
:1042F00000AF786039603B681A78464B93F8A63E69
:104300009A4210D1434BD3F8983E434A92F8CD2EAF
:10431000934208D33F4B042283F8A52E3D4B002245
:10432000C3F8982E6FE03C4BB3F85C3E1A463A4B0C
:10433000B3F8643ED31ABB60374BB3F85C3E1A4601
:10434000BB68934201D90023BB60334B93F8CD3E49
:104350001A46BB689B1AFB60FA68BB689A4201D98F
:104360000023FB602B4BD3F8983EFA689A4208D89A
:10437000284B062283F8A52E264B0022C3F8982E40
:1043800041E0254B93F8D03E092B04D0214B13225A
:1043900083F8A52E37E07B68D3E900231E4901F698
:1043A000F851C1E900231B4B93F8A62E1A4B83F852
:1043B000DE2E184B93F8A62E174B83F8DA2E154BEA
:1043C00093F8A72E144B83F8DC2E124B93F8A72EEC
:1043D000114B83F8D92E0F4B93F8A72E0E4B83F871
:1043E000D82E0C4B93F8A72E0B4B83F8DB2E094BE2
:1043F00093F8A62E084B83F8DF2E064B93F8A72ED2
:10440000054B83F8DD2E00BF1437BD465DF8047BF5
:10441000704700BFE02400200016002080B483B065
:1044200000AF7860274BD3F8983E274AB2F8642E45
:10443000934208D3234B042283F8A52E214B00225C
:10444000C3F8982E37E07B68D3E900231E4901F6B4
:10445000F851C1E900231B4B93F8A62E1A4B83F8A1
:10446000DE2E184B93F8A62E174B83F8DA2E154B39
:1044700093F8A72E144B83F8DC2E124B93F8A72E3B
:10448000114B83F8D92E0F4B93F8A72E0E4B83F8C0
:10449000D82E0C4B93F8A72E0B4B83F8DB2E094B31
:1044A00093F8A62E084B83F8DF2E064B93F8A72E21
:1044B000054B83F8DD2E00BF0C37BD465DF8047B4D
:1044C000704700BFE024002000160020B0B586B081
:1044D00000AF786039603B68D3E90045484B93F8FA
:1044E000CD3E1846FCF722FA02460B4620462946E6
:1044F000FCF7DEF802460B4643EC172BB0EE470AFA
:10450000F0EE670A05F07EFBB0EE407AF0EE607ADE
:1045100087ED027B4FF000023A4BD7E90201FCF72E
:10452000F1FC0346002B14D04FF000024FF00003C3
:10453000D7E90201FCF7FAFC0346002B06D0D7E9C5
:104540000201FCF745FD0346FB7504E00023FB7503
:1045500001E0FF23FB752C4BD3F8982EFB7D9A428C
:1045600008D3294B082283F8A52E274B0022C3F835
:10457000982E41E0224B93F8D03E012B04D0224BE1
:10458000132283F8A52E37E07B68D3E900231C496A
:1045900001F6F851C1E900231B4B93F8A62E184BE6
:1045A00083F8DE2E184B93F8A62E154B83F8DA2EDF
:1045B000154B93F8A72E124B83F8DC2E124B93F871
:1045C000A72E0F4B83F8D92E0F4B93F8A72E0C4B29
:1045D00083F8D82E0C4B93F8A72E094B83F8DB2ECB
:1045E000094B93F8A62E064B83F8DF2E064B93F863
:1045F000A72E034B83F8DD2E00BF1837BD46B0BD94
:104600000016002000007040E024002080B485B037
:1046100000AF7860344BB3F85C3E1A46324B93F8E7
:10462000CD3ED31AFB60304BB3F85C3E1A46FB68B4
:10463000934201D90023FB602C4BD3F8983EFA68D3
:104640009A4208D8294B0A2283F8A52E274B00222C
:10465000C3F8982E41E0244B93F8D03E072B04D0AA
:10466000224B132283F8A52E37E07B68D3E9002381
:104670001D4901F6F851C1E900231C4B93F8A62E01
:10468000194B83F8DE2E194B93F8A62E164B83F8A0
:10469000DA2E164B93F8A72E134B83F8DC2E134B10
:1046A00093F8A72E104B83F8D92E104B93F8A72E12
:1046B0000D4B83F8D82E0D4B93F8A72E0A4B83F899
:1046C000DB2E0A4B93F8A62E074B83F8DF2E074B01
:1046D00093F8A72E044B83F8DD2E00BF1437BD4698
:1046E0005DF8047B704700BF00160020E024002026
:1046F00080B588B000AF786039607B6893ED007B4F
:10470000B0EE470AF0EE670A05F07CFAB0EE407AA8
:10471000F0EE607A87ED027B4FF00002464BD7E95E
:104720000201FCF7EFFB0346002B14D04FF0000210
:104730004FF00003D7E90201FCF7F8FB0346002B1A
:1047400006D0D7E90201FCF743FC0346FB8205E0F3
:104750000023FB8202E04FF6FF73FB82FB8A374A9D
:1047600092F8D52E9B1ABB61FB8ABA699A4201D98D
:104770000023BB61314BB3F8663E1A46BB699B1AF6
:10478000FB61FA69BB699A4201D90023FB612C4B9A
:10479000D3F8983EFA699A4208D8294B0C2283F83C
:1047A000A52E274B0022C3F8982E41E0234B93F807
:1047B000D03E052B04D0224B132283F8A52E37E0E0
:1047C0003B68D3E900231D4901F6F851C1E90023F4
:1047D0001B4B93F8A62E194B83F8DE2E184B93F83B
:1047E000A62E164B83F8DA2E154B93F8A72E134BF3
:1047F00083F8DC2E124B93F8A72E104B83F8D92E9A
:104800000F4B93F8A72E0D4B83F8D82E0C4B93F833
:10481000A72E0A4B83F8DB2E094B93F8A72E074BE4
:1048200083F8DF2E064B93F8A62E044B83F8DD2E7B
:1048300000BF2037BD4680BD0000F04000160020BC
:10484000E024002080B485B000AF78603A4B93F844
:10485000D03E062B04D0394B132283F8A52E65E0F9
:10486000354BB3F85C3E1A46334B93F8D53ED31A1A
:10487000BB60314BB3F85C3E1A46BB68934201D92A
:104880000023BB602C4BB3F8663E1A46BB689B1AEC
:10489000FB60FA68BB689A4201D90023FB60274B92
:1048A000D3F8983EFA689A4208D8244B102283F82D
:1048B000A52E224B0022C3F8982E37E07B68D3E95F
:1048C00000231D4901F6F851C1E900231B4B93F861
:1048D000A62E194B83F8DE2E184B93F8A62E164BF6
:1048E00083F8DA2E154B93F8A72E134B83F8DC2EA2
:1048F000124B93F8A72E104B83F8D92E0F4B93F839
:10490000A72E0D4B83F8D82E0C4B93F8A72E0A4BED
:1049100083F8DB2E094B93F8A72E074B83F8DF2E85
:10492000064B93F8A62E044B83F8DD2E00BF1437F8
:10493000BD465DF8047B704700160020E02400208F
:1049400080B400AF3E4B93F8D03E013B092B71D8A9
:1049500001A252F823F000BF8149000093490000F2
:10496000A5490000B7490000C9490000DB49000023
:10497000ED490000FF490000234A0000114A0000F1
:10498000304B072283F8A52E2E4B0022C3F8982E19
:1049900050E02C4B142283F8A52E2A4B0022C3F89A
:1049A000982E47E0274B012283F8A52E254B0022A5
:1049B000C3F8982E3EE0234B182283F8A52E214BF6
:1049C0000022C3F8982E35E01E4B0D2283F8A52E49
:1049D0001C4B0022C3F8982E2CE01A4B112283F8AE
:1049E000A52E184B0022C3F8982E23E0154B092260
:1049F00083F8A52E134B0022C3F8982E1AE0114B12
:104A0000162283F8A52E0F4B0022C3F8982E11E032
:104A10000C4B1B2283F8A52E0A4B0022C3F8982EBC
:104A200008E0084B042283F8A52E064B0022C3F8A9
:104A3000982E00BF00BFBD465DF8047B704700BFE5
:104A400000160020E0240020B0B586B000AF7860EA
:104A500039607B68D3E90045484B93F8D53E18464A
:104A6000FBF764FF02460B4620462946FBF720FE73
:104A700002460B4643EC172BB0EE470AF0EE670AEE
:104A800005F0C0F8B0EE407AF0EE607A87ED027B78
:104A90004FF000023A4BD7E90201FCF733FA034624
:104AA000002B14D04FF000024FF00003D7E90201B1
:104AB000FCF73CFA0346002B06D0D7E90201FCF7CD
:104AC00087FA0346FB7504E00023FB7501E0FF2332
:104AD000FB752C4BD3F8982EFB7D9A4208D3294BBB
:104AE000152283F8A52E274B0022C3F8982E41E00B
:104AF000224B93F8D03E022B04D0224B132283F892
:104B0000A52E37E03B68D3E900231C4901F6F85194
:104B1000C1E900231B4B93F8A62E184B83F8DE2E19
:104B2000184B93F8A62E154B83F8DA2E154B93F8F5
:104B3000A72E124B83F8DC2E124B93F8A72E0F4BA7
:104B400083F8D92E0F4B93F8A72E0C4B83F8D82E51
:104B50000C4B93F8A72E094B83F8DB2E094B93F8E7
:104B6000A72E064B83F8DF2E064B93F8A62E034B99
:104B700083F8DD2E00BF1837BD46B0BD00160020FB
:104B800000007040E024002080B485B000AF786061
:104B9000344BB3F85C3E1A46324B93F8D53ED31AE9
:104BA000FB60304BB3F85C3E1A46FB68934201D978
:104BB0000023FB602C4BD3F8983EFA689A4208D841
:104BC000294B172283F8A52E274B0022C3F8982ED5
:104BD00041E0244B93F8D03E082B04D0224B132203
:104BE00083F8A52E37E07B68D3E900231D4901F641
:104BF000F851C1E900231C4B93F8A62E194B83F8FA
:104C0000DE2E194B93F8A62E164B83F8DA2E164B90
:104C100093F8A72E134B83F8DC2E134B93F8A72E93
:104C2000104B83F8D92E104B93F8A72E0D4B83F819
:104C3000D82E0D4B93F8A72E0A4B83F8DB2E0A4B88
:104C400093F8A72E074B83F8DF2E074B93F8A62E79
:104C5000044B83F8DD2E00BF1437BD465DF8047B9E
:104C6000704700BF00160020E024002080B58AB005
:104C700000AFF860B9607A605B4B93F8D03E042BCC
:104C800004D05A4B132283F8A52EA8E0FB681A78AB
:104C9000564B93F8A63E9A4210D1544BD3F8983E07
:104CA000514A92F8D52E934208D3504B182283F8DC
:104CB000A52E4E4B0022C3F8982E90E0BB6893EDD2
:104CC000007BB0EE470AF0EE670A04F09BFFB0EEFF
:104CD000407AF0EE607A87ED047B4FF00002444B9F
:104CE000D7E90401FCF70EF90346002B14D04FF06E
:104CF00000024FF00003D7E90401FCF717F903465F
:104D0000002B06D0D7E90401FCF762F90346FB83C8
:104D100005E00023FB8302E04FF6FF73FB83FB8B70
:104D2000314AB2F8682E9B1A3B62FB8B3A6A9A4270
:104D300001D900233B622C4B93F8D53E1A463B6ABF
:104D40009B1A7B627A6A3B6A9A4201D900237B6292
:104D5000264BD3F8983E7A6A9A4208D8234B1A22F7
:104D600083F8A52E214B0022C3F8982E37E07B68EC
:104D7000D3E900231C4901F6F851C1E900231B4B7C
:104D800093F8A62E184B83F8DE2E184B93F8A62E18
:104D9000154B83F8DA2E154B93F8A72E124B83F898
:104DA000DC2E124B93F8A72E0F4B83F8D92E0F4B06
:104DB00093F8A72E0C4B83F8D82E0C4B93F8A72E04
:104DC000094B83F8DB2E094B93F8A72E064B83F88B
:104DD000DF2E064B93F8A62E034B83F8DD2E00BF83
:104DE0002837BD4680BD00BF00160020E02400200B
:104DF0000000F04080B483B000AF7860274BD3F858
:104E0000983E274AB2F8682E934208D3234B1822C3
:104E100083F8A52E214B0022C3F8982E37E07B683B
:104E2000D3E900231E4901F6F851C1E900231B4BC9
:104E300093F8A62E1A4B83F8DE2E184B93F8A62E65
:104E4000174B83F8DA2E154B93F8A72E144B83F8E3
:104E5000DC2E124B93F8A72E114B83F8D92E0F4B53
:104E600093F8A72E0E4B83F8D82E0C4B93F8A72E51
:104E70000B4B83F8DB2E094B93F8A72E084B83F8D6
:104E8000DF2E064B93F8A62E054B83F8DD2E00BFD0
:104E90000C37BD465DF8047B704700BFE02400205E
:104EA0000016002080B485B000AF786039607B6860
:104EB0001A78464B93F8A63E9A4210D1434BD3F84A
:104EC000983E434A92F8D52E934208D33F4B1B227B
:104ED00083F8A52E3D4B0022C3F8982E6FE03C4B83
:104EE000B3F85C3E1A463A4BB3F8683ED31ABB603F
:104EF000374BB3F85C3E1A46BB68934201D9002396
:104F0000BB60334B93F8D53E1A46BB689B1AFB60D7
:104F1000FA68BB689A4201D90023FB602B4BD3F897
:104F2000983EFA689A4208D8284B1D2283F8A52E8D
:104F3000264B0022C3F8982E41E0254B93F8D03E33
:104F40000A2B04D0214B132283F8A52E37E03B68AF
:104F5000D3E900231E4901F6F851C1E900231B4B98
:104F600093F8A62E1A4B83F8DE2E184B93F8A62E34
:104F7000174B83F8DA2E154B93F8A72E144B83F8B2
:104F8000DC2E124B93F8A72E114B83F8D92E0F4B22
:104F900093F8A72E0E4B83F8D82E0C4B93F8A72E20
:104FA0000B4B83F8DB2E094B93F8A72E084B83F8A5
:104FB000DF2E064B93F8A62E054B83F8DD2E00BF9F
:104FC0001437BD465DF8047B704700BFE024002025
:104FD0000016002080B483B000AF7860274BD3F870
:104FE000983E274AB2F8682E934208D3234B1B22DF
:104FF00083F8A52E214B0022C3F8982E37E07B685A
:10500000D3E900231E4901F6F851C1E900231B4BE7
:1050100093F8A62E1A4B83F8DE2E184B93F8A62E83
:10502000174B83F8DA2E154B93F8A72E144B83F801
:10503000DC2E124B93F8A72E114B83F8D92E0F4B71
:1050400093F8A72E0E4B83F8D82E0C4B93F8A72E6F
:105050000B4B83F8DB2E094B93F8A72E084B83F8F4
:10506000DF2E064B93F8A62E054B83F8DD2E00BFEE
:105070000C37BD465DF8047B704700BFE02400207C
:105080000016002080B584B002AF78607B680022F3
:105090001A727B6801225A605E4B002283F8622DEF
:1050A0005C4B0022C3F8642D5A4BD3F8643D594A37
:1050B00092F8622D11461846FEF7A8FD02467B685D
:1050C0009A627B68544A5A627B689A6A7B685B6A18
:1050D00019461046FEF7BEFD4E4B2B2283F8822E5A
:1050E0004C4B402283F8832E7B68986A00230193FF
:1050F000002300930223494A1D21FEF7F6FD4FF4D9
:10510000FA7006F08FFB434B2A2283F8D72E7B6878
:10511000986A00230193012300930123404A1D2133
:10512000FEF7E3FD03461A463A4B83F8D72E394B78
:1051300093F8D73E002B10D17B68986A0123019326
:10514000002300930123364A1D21FEF79AFD012218
:1051500033493448FDF77AF803E02E4B002283F8F8
:10516000D62E2C4B2A2283F8822E2A4B93F8D63E39
:1051700023F00103DAB2274B83F8832E7B68986A09
:1051800000230193002300930223244A1D21FEF7EC
:10519000ACFD204B0E2283F8822E1E4B012283F899
:1051A000832E7B68986A00230193002300930223D7
:1051B0001A4A1D21FEF799FD164B5B2283F8822EB9
:1051C000144B002283F8832E7B68986A0023019396
:1051D000002300930223114A1D21FEF786FD0D4B8B
:1051E0002A2283F8822E0B4B012283F8832E7B68C0
:1051F000986A00230193002300930223074A1D218C
:10520000FEF773FD7B6801221A7200BF0837BD46A6
:1052100080BD00BF00160020A0860100822400206F
:10522000D7240020D624002080B483B000AF78605B
:105230007B6800221A727B6801225A607B68012217
:105240001A637B6800229A637B6800229A637B68FA
:1052500003F138027B68DA627B6801221A727B688C
:1052600000225A7200BF0C37BD465DF8047B7047C0
:1052700080B582B000AF78607B6800221A727B68CC
:1052800001225A601A4B4FF0FF32C3F8582D184BC9
:105290000022C3F85C2D164BD3F8583D0A2200219A
:1052A0001448FDF7CBFC02467B681A617B681B69DA
:1052B0004FF4E1311846FDF799FF0D4B012283F8B9
:1052C000602D0B4B002283F8612D7B681869084B19
:1052D00093F8612D064B93F8603D0821FDF792FF8E
:1052E0007B6801221A7200BF0837BD4680BD00BF2F
:1052F000001600205C2300202DE9B04F92B002AFD1
:105300008D4B03F55563D3E900018C4BD3E90A2398
:10531000FBF7EEFD0346002B07D1884BD3E90A23A8
:10532000854901F55561C1E90023834BD3F8483D18
:10533000542283491846FDF779FF0346FB75542232
:105340007F498048FCF782FF7B4B03F54D63D3E92F
:1053500000017A4BD3E90223FBF7CAFD0346002B79
:1053600007D1764BD3E90223734901F54D61C1E9B9
:105370000023714BD3F8C83C1846FDF7F1FB6E4B88
:10538000D3F8C83C072270491846FDF78DFB6A4BDD
:1053900003F54B63D3E90001684BD3E90C23FBF71A
:1053A000A7FD0346002B07D1644BD3E90C236249C8
:1053B00001F54B61C1E900235F4BD3F8A83C1846C7
:1053C000FDF7CEFB5C4BD3F8A83C07225F4918469B
:1053D000FDF76AFB584B93F8A23E002B70D1564B59
:1053E000012283F8A22E544B012283F8A32E584B9E
:1053F0000A2283F8D02E564B3C2283F8CE2E544BF3
:10540000782283F8D42E524B9622A3F8662E504B66
:105410000A2283F8D22E4E4B102283F8D32E4C4B07
:1054200003F6B8514FF000024A4BC1E90023484B44
:10543000142283F8D12E464BB42283F8CF2E444B4E
:1054400003F55C614FF00002434BC1E90023404B80
:105450000A2283F8CD2E3E4BC822A3F8642E3C4B83
:1054600003F55D6130A3D3E90023C1E90023384B84
:1054700003F6C8514FF00002384BC1E90023344B0A
:1054800003F6D8514FF00002334BC1E90023304BF3
:105490000A2283F8D52E2E4BC822A3F8682E2C4B57
:1054A00003F6E85122A3D3E90023C1E90023284BE6
:1054B00003F55E614FF00002284BC1E90023BEE016
:1054C0001D4B93F8A33E032B10D0032B13DC012BB1
:1054D00002D0022B05D00EE0174B042283F8A32E36
:1054E000ADE0154B042283F8A32EA8E0124B042252
:1054F00083F8A32EA3E0FB7D002B40F09F80144B8C
:1055000093F8AE3C162B40F09480114B93F8AF3CCF
:10551000222B02D0552B23D086E0074B022283F8A2
:10552000A32E03F0C3F889E0CDCCCCCCCCCCFC3F8F
:105530009A99999999990140E024002080060020C9
:1055400002230020AE220020F0230020B023002000
:10555000001600200000F03F00000C400080514089
:10556000874B032283F8A32E012286498648FCF745
:105570006DFE012285498648FCF768FE01228549B7
:105580008548FCF763FE022284498548FCF75EFEED
:10559000012284498448FCF759FE0122834984484A
:1055A000FCF754FE082283498348FCF74FFE012292
:1055B00082498348FCF74AFE012282498248FCF76F
:1055C00045FE082281498248FCF740FE01228149BC
:1055D0008148FCF73BFE022280498148FCF736FEF9
:1055E000082280498048FCF731FE08227F49804824
:1055F000FCF72CFE08227F497F48FCF727FE01229A
:105600007E497F48FCF722FE02227E497E48FCF755
:105610001DFE08227D497E48FCF718FE08227D49C0
:105620007D48FCF713FE09E0554B042283F8A32EB6
:1056300004E0534B042283F8A32EFFE700BF774B0F
:1056400003F6D853D3E90001754BD3E91623FBF7D2
:1056500011FB02460B4610461946714BD3E918233D
:10566000FBF7DEF902460B466C4901F63861C1E9E9
:1056700000236A4B03F55C63D3E90001684BD3E96F
:105680001623FBF7F7FA02460B4610461946644B01
:10569000D3E91A23FBF7C4F902460B465F4901F62A
:1056A0002861C1E90023364B03F55163D3E90001BA
:1056B0005B4BD3E90423FBF71BFC0346002B07D10C
:1056C000574BD3E904232E4901F55161C1E9002369
:1056D0002B4BD3F8083D1846FCF790FF03467B752B
:1056E000274B03F55363D3E900014D4BD3E908235E
:1056F000FBF7FEFB0346002B07D1494BD3E90823F8
:105700001F4901F55361C1E900231D4BD3F8283D22
:105710001846FCF773FF0346BB757B7D002B02D157
:10572000BB7D002B01D0012300E00023DBB27B75A1
:10573000134B03F54F63D3E90001394BD3E906233B
:10574000FBF7D6FB0346002B07D1354BD3E90623E5
:105750000B4901F54F61C1E90023094BD3F8E83C3F
:105760001846FCF74BFF034687F83730BB7D002B0C
:1057700003D197F83730002B54D0012353E000BFFA
:10578000E0240020B0220020D0240020B1220020FC
:10579000CE240020B2220020D4240020B3220020F6
:1057A00066240020B5220020D2240020B62200204A
:1057B000D3240020B7220020B8230020BF220020DD
:1057C000D1240020C0220020CF240020C1220020AC
:1057D000C0230020C9220020CD240020CA2200209E
:1057E00064240020CC220020D0230020D4220020DA
:1057F000C8230020DC220020D8230020E42200203F
:10580000D5240020E522002068240020E722002083
:10581000E8230020EF220020E023002000160020D3
:10582000800600200023DBB2BB75564B93F8CE3EBA
:105830001846FBF77BF802460B464FF00000524932
:10584000FBF718FA02460B46104619464F4BD3E9B0
:105850001C23FBF7E5F802460B464A4901F5636154
:10586000C1E90023474B93F8D02E484B1B789A424E
:1058700081F09682434B93F8D02E444B5B789A424A
:1058800041F28E82424B03F67843D3E900013F4B4D
:10589000D3E90E23FBF72CFB0346002B07D13B4B30
:1058A000D3E90E233A4901F67841C1E900230123E7
:1058B000FB75374BD3F8900C07F1170200230193C7
:1058C0000123009301231D21FEF70FFA0346FB7508
:1058D000FB7D002B5ED12E4BD3F8900C07F12002FC
:1058E000012301930023009306231D21FEF7C9F92C
:1058F00007F1200107F1280306221846FCF7A6FC51
:1059000007F1280107F1180302221846FCF79EFC54
:105910007B7E3B773B7E7B7707F11C0107F12803F9
:1059200002221846FCF792FC07F12803991C07F1A4
:10593000180302221846FCF789FC7B7E3B773B7EEE
:105940007B7707F11C0107F1280302330222184676
:10595000FCF77CFC07F12803191D07F1180302224C
:105960001846FCF773FC7B7E3B773B7E7B7707F129
:105970001C0107F12803043302221846FCF766FCD9
:105980000EE000BF001600200000F03F800600205F
:10599000E024002000233B8500237B850023BB857A
:1059A000B7F928309FEDBA0B1846FEF759FA0346AF
:1059B0001846FAF7CBFF02460B46FAF77BFE024683
:1059C0000B4610461946B4A3D3E90023FBF728F889
:1059D00002460B46104619464FF00002B04BFBF74B
:1059E00049F902460B46AF4901F56461C1E900235C
:1059F000B7F92A309FEDA60B1846FEF731FA034699
:105A00001846FAF7A3FF02460B46FAF753FE024682
:105A10000B4610461946A0A3D3E90023FBF700F874
:105A200002460B46104619464FF000029C4BFBF70E
:105A300021F902460B469B4901F64861C1E9002362
:105A4000B7F92C309FED920B1846FEF709FA034682
:105A50001846FAF77BFF02460B46FAF72BFE024682
:105A60000B46104619468CA3D3E90023FAF7D8FF5A
:105A700002460B46104619464FF00002884BFBF7D2
:105A8000F9F802460B46874901F56561C1E9002333
:105A9000844B03F56463D3E90001824B03F564632F
:105AA000D3E90023FAF7BCFF02460B4614461D4615
:105AB0007C4B03F64863D3E900017A4B03F6486355
:105AC000D3E90023FAF7ACFF02460B4620462946ED
:105AD000FAF7F0FD02460B4614461D46714B03F5DE
:105AE0006563D3E900016F4B03F56563D3E90023D8
:105AF000FAF796FF02460B4620462946FAF7DAFDEA
:105B000002460B4643EC172BB0EE470AF0EE670A4D
:105B100008F066FA51EC100B634BD3E91023FAF747
:105B2000C7FD02460B465F4901F56261C1E90023EA
:105B30005E4B5B7A002B02D05C4B00225A725B4BAF
:105B4000DB6A3B633B6B1B68012B00F0EF803B6B18
:105B500000221A713B6B01221A600023FB630DE0E7
:105B60003A6BFB6B0133DB00D1184FF000024FF0B2
:105B70000003C1E90023FB6B0133FB63FB6B7F2B4D
:105B8000EEDD0023FB630DE03A6BFB6B8133DB0042
:105B9000D1184FF000024FF00003C1E90023FB6B66
:105BA0000133FB63FB6B7F2BEEDD0023FB630EE019
:105BB0003A6BFB6B03F20113DB00D1184FF00002CC
:105BC0004FF00003C1E90023FB6B0133FB63FB6B68
:105BD0007F2BEDDD3B6B03F608414FF000024FF0E9
:105BE0000003C1E900233B6B03F541614FF0000264
:105BF0004FF00003C1E900233B6B03F618414FF05F
:105C000000024FF00003C1E900233B6B03F5426142
:105C10004FF000024FF00003C1E900233B6B03F695
:105C200028414FF000024FF00003C1E900233B6B15
:105C300001221A710023FB630DE03A6BFB6B013309
:105C4000DB00D1184FF000024FF00003C1E9002340
:105C5000FB6B0133FB63FB6B7F2BEEDD0023FB63F0
:105C60000DE03A6BFB6B8133DB00D1184FF0000283
:105C70004FF00003C1E90023FB6B0133FB63FB6BB7
:105C80007F2BEEDD0023FB6321E000BFAFF300803C
:105C900000000000000000C008AC1C5A643BCF3F6D
:105CA00000408F400016002080060020E0240020E5
:105CB0003A6BFB6B03F20113DB00D1184FF00002CB
:105CC0004FF00003C1E90023FB6B0133FB63FB6B67
:105CD0007F2BEDDD3B6B03F608414FF000024FF0E8
:105CE0000003C1E900233B6B03F541614FF0000263
:105CF0004FF00003C1E900233B6B03F618414FF05E
:105D000000024FF00003C1E900233B6B03F5426141
:105D10004FF000021D4BC1E900233B6B03F6284105
:105D20004FF000024FF00003C1E900230023FB63A2
